{"abi":[{"type":"constructor","inputs":[{"name":"usdc","type":"address","internalType":"contract IERC20"},{"name":"_swapRouter","type":"address","internalType":"address"},{"name":"_agent","type":"address","internalType":"address"}],"stateMutability":"nonpayable"},{"type":"function","name":"agent","inputs":[],"outputs":[{"name":"","type":"address","internalType":"address"}],"stateMutability":"view"},{"type":"function","name":"allowance","inputs":[{"name":"owner","type":"address","internalType":"address"},{"name":"spender","type":"address","internalType":"address"}],"outputs":[{"name":"","type":"uint256","internalType":"uint256"}],"stateMutability":"view"},{"type":"function","name":"approve","inputs":[{"name":"spender","type":"address","internalType":"address"},{"name":"value","type":"uint256","internalType":"uint256"}],"outputs":[{"name":"","type":"bool","internalType":"bool"}],"stateMutability":"nonpayable"},{"type":"function","name":"asset","inputs":[],"outputs":[{"name":"","type":"address","internalType":"address"}],"stateMutability":"view"},{"type":"function","name":"balanceOf","inputs":[{"name":"account","type":"address","internalType":"address"}],"outputs":[{"name":"","type":"uint256","internalType":"uint256"}],"stateMutability":"view"},{"type":"function","name":"convertToAssets","inputs":[{"name":"shares","type":"uint256","internalType":"uint256"}],"outputs":[{"name":"","type":"uint256","internalType":"uint256"}],"stateMutability":"view"},{"type":"function","name":"convertToShares","inputs":[{"name":"assets","type":"uint256","internalType":"uint256"}],"outputs":[{"name":"","type":"uint256","internalType":"uint256"}],"stateMutability":"view"},{"type":"function","name":"decimals","inputs":[],"outputs":[{"name":"","type":"uint8","internalType":"uint8"}],"stateMutability":"view"},{"type":"function","name":"deposit","inputs":[{"name":"assets","type":"uint256","internalType":"uint256"},{"name":"receiver","type":"address","internalType":"address"}],"outputs":[{"name":"","type":"uint256","internalType":"uint256"}],"stateMutability":"nonpayable"},{"type":"function","name":"executeTrade","inputs":[{"name":"tokenIn","type":"address","internalType":"address"},{"name":"tokenOut","type":"address","internalType":"address"},{"name":"poolFee","type":"uint24","internalType":"uint24"},{"name":"amountIn","type":"uint256","internalType":"uint256"},{"name":"amountOutMinimum","type":"uint256","internalType":"uint256"},{"name":"reasoningHash","type":"bytes32","internalType":"bytes32"},{"name":"confidence","type":"uint8","internalType":"uint8"}],"outputs":[{"name":"amountOut","type":"uint256","internalType":"uint256"}],"stateMutability":"nonpayable"},{"type":"function","name":"maxDeposit","inputs":[{"name":"","type":"address","internalType":"address"}],"outputs":[{"name":"","type":"uint256","internalType":"uint256"}],"stateMutability":"view"},{"type":"function","name":"maxMint","inputs":[{"name":"","type":"address","internalType":"address"}],"outputs":[{"name":"","type":"uint256","internalType":"uint256"}],"stateMutability":"view"},{"type":"function","name":"maxRedeem","inputs":[{"name":"owner","type":"address","internalType":"address"}],"outputs":[{"name":"","type":"uint256","internalType":"uint256"}],"stateMutability":"view"},{"type":"function","name":"maxWithdraw","inputs":[{"name":"owner","type":"address","internalType":"address"}],"outputs":[{"name":"","type":"uint256","internalType":"uint256"}],"stateMutability":"view"},{"type":"function","name":"mint","inputs":[{"name":"shares","type":"uint256","internalType":"uint256"},{"name":"receiver","type":"address","internalType":"address"}],"outputs":[{"name":"","type":"uint256","internalType":"uint256"}],"stateMutability":"nonpayable"},{"type":"function","name":"name","inputs":[],"outputs":[{"name":"","type":"string","internalType":"string"}],"stateMutability":"view"},{"type":"function","name":"owner","inputs":[],"outputs":[{"name":"","type":"address","internalType":"address"}],"stateMutability":"view"},{"type":"function","name":"positionOpen","inputs":[],"outputs":[{"name":"","type":"bool","internalType":"bool"}],"stateMutability":"view"},{"type":"function","name":"previewDeposit","inputs":[{"name":"assets","type":"uint256","internalType":"uint256"}],"outputs":[{"name":"","type":"uint256","internalType":"uint256"}],"stateMutability":"view"},{"type":"function","name":"previewMint","inputs":[{"name":"shares","type":"uint256","internalType":"uint256"}],"outputs":[{"name":"","type":"uint256","internalType":"uint256"}],"stateMutability":"view"},{"type":"function","name":"previewRedeem","inputs":[{"name":"shares","type":"uint256","internalType":"uint256"}],"outputs":[{"name":"","type":"uint256","internalType":"uint256"}],"stateMutability":"view"},{"type":"function","name":"previewWithdraw","inputs":[{"name":"assets","type":"uint256","internalType":"uint256"}],"outputs":[{"name":"","type":"uint256","internalType":"uint256"}],"stateMutability":"view"},{"type":"function","name":"redeem","inputs":[{"name":"shares","type":"uint256","internalType":"uint256"},{"name":"receiver","type":"address","internalType":"address"},{"name":"owner","type":"address","internalType":"address"}],"outputs":[{"name":"","type":"uint256","internalType":"uint256"}],"stateMutability":"nonpayable"},{"type":"function","name":"renounceOwnership","inputs":[],"outputs":[],"stateMutability":"nonpayable"},{"type":"function","name":"setAgent","inputs":[{"name":"newAgent","type":"address","internalType":"address"}],"outputs":[],"stateMutability":"nonpayable"},{"type":"function","name":"swapRouter","inputs":[],"outputs":[{"name":"","type":"address","internalType":"contract ISwapRouter"}],"stateMutability":"view"},{"type":"function","name":"symbol","inputs":[],"outputs":[{"name":"","type":"string","internalType":"string"}],"stateMutability":"view"},{"type":"function","name":"totalAssets","inputs":[],"outputs":[{"name":"","type":"uint256","internalType":"uint256"}],"stateMutability":"view"},{"type":"function","name":"totalSupply","inputs":[],"outputs":[{"name":"","type":"uint256","internalType":"uint256"}],"stateMutability":"view"},{"type":"function","name":"transfer","inputs":[{"name":"to","type":"address","internalType":"address"},{"name":"value","type":"uint256","internalType":"uint256"}],"outputs":[{"name":"","type":"bool","internalType":"bool"}],"stateMutability":"nonpayable"},{"type":"function","name":"transferFrom","inputs":[{"name":"from","type":"address","internalType":"address"},{"name":"to","type":"address","internalType":"address"},{"name":"value","type":"uint256","internalType":"uint256"}],"outputs":[{"name":"","type":"bool","internalType":"bool"}],"stateMutability":"nonpayable"},{"type":"function","name":"transferOwnership","inputs":[{"name":"newOwner","type":"address","internalType":"address"}],"outputs":[],"stateMutability":"nonpayable"},{"type":"function","name":"withdraw","inputs":[{"name":"assets","type":"uint256","internalType":"uint256"},{"name":"receiver","type":"address","internalType":"address"},{"name":"owner","type":"address","internalType":"address"}],"outputs":[{"name":"","type":"uint256","internalType":"uint256"}],"stateMutability":"nonpayable"},{"type":"event","name":"AgentChanged","inputs":[{"name":"oldAgent","type":"address","indexed":true,"internalType":"address"},{"name":"newAgent","type":"address","indexed":true,"internalType":"address"}],"anonymous":false},{"type":"event","name":"Approval","inputs":[{"name":"owner","type":"address","indexed":true,"internalType":"address"},{"name":"spender","type":"address","indexed":true,"internalType":"address"},{"name":"value","type":"uint256","indexed":false,"internalType":"uint256"}],"anonymous":false},{"type":"event","name":"Deposit","inputs":[{"name":"sender","type":"address","indexed":true,"internalType":"address"},{"name":"owner","type":"address","indexed":true,"internalType":"address"},{"name":"assets","type":"uint256","indexed":false,"internalType":"uint256"},{"name":"shares","type":"uint256","indexed":false,"internalType":"uint256"}],"anonymous":false},{"type":"event","name":"OwnershipTransferred","inputs":[{"name":"previousOwner","type":"address","indexed":true,"internalType":"address"},{"name":"newOwner","type":"address","indexed":true,"internalType":"address"}],"anonymous":false},{"type":"event","name":"TradeExecuted","inputs":[{"name":"tokenIn","type":"address","indexed":true,"internalType":"address"},{"name":"tokenOut","type":"address","indexed":true,"internalType":"address"},{"name":"amountIn","type":"uint256","indexed":false,"internalType":"uint256"},{"name":"amountOut","type":"uint256","indexed":false,"internalType":"uint256"},{"name":"reasoningHash","type":"bytes32","indexed":true,"internalType":"bytes32"},{"name":"confidence","type":"uint8","indexed":false,"internalType":"uint8"},{"name":"timestamp","type":"uint256","indexed":false,"internalType":"uint256"}],"anonymous":false},{"type":"event","name":"Transfer","inputs":[{"name":"from","type":"address","indexed":true,"internalType":"address"},{"name":"to","type":"address","indexed":true,"internalType":"address"},{"name":"value","type":"uint256","indexed":false,"internalType":"uint256"}],"anonymous":false},{"type":"event","name":"Withdraw","inputs":[{"name":"sender","type":"address","indexed":true,"internalType":"address"},{"name":"receiver","type":"address","indexed":true,"internalType":"address"},{"name":"owner","type":"address","indexed":true,"internalType":"address"},{"name":"assets","type":"uint256","indexed":false,"internalType":"uint256"},{"name":"shares","type":"uint256","indexed":false,"internalType":"uint256"}],"anonymous":false},{"type":"error","name":"ERC20InsufficientAllowance","inputs":[{"name":"spender","type":"address","internalType":"address"},{"name":"allowance","type":"uint256","internalType":"uint256"},{"name":"needed","type":"uint256","internalType":"uint256"}]},{"type":"error","name":"ERC20InsufficientBalance","inputs":[{"name":"sender","type":"address","internalType":"address"},{"name":"balance","type":"uint256","internalType":"uint256"},{"name":"needed","type":"uint256","internalType":"uint256"}]},{"type":"error","name":"ERC20InvalidApprover","inputs":[{"name":"approver","type":"address","internalType":"address"}]},{"type":"error","name":"ERC20InvalidReceiver","inputs":[{"name":"receiver","type":"address","internalType":"address"}]},{"type":"error","name":"ERC20InvalidSender","inputs":[{"name":"sender","type":"address","internalType":"address"}]},{"type":"error","name":"ERC20InvalidSpender","inputs":[{"name":"spender","type":"address","internalType":"address"}]},{"type":"error","name":"ERC4626ExceededMaxDeposit","inputs":[{"name":"receiver","type":"address","internalType":"address"},{"name":"assets","type":"uint256","internalType":"uint256"},{"name":"max","type":"uint256","internalType":"uint256"}]},{"type":"error","name":"ERC4626ExceededMaxMint","inputs":[{"name":"receiver","type":"address","internalType":"address"},{"name":"shares","type":"uint256","internalType":"uint256"},{"name":"max","type":"uint256","internalType":"uint256"}]},{"type":"error","name":"ERC4626ExceededMaxRedeem","inputs":[{"name":"owner","type":"address","internalType":"address"},{"name":"shares","type":"uint256","internalType":"uint256"},{"name":"max","type":"uint256","internalType":"uint256"}]},{"type":"error","name":"ERC4626ExceededMaxWithdraw","inputs":[{"name":"owner","type":"address","internalType":"address"},{"name":"assets","type":"uint256","internalType":"uint256"},{"name":"max","type":"uint256","internalType":"uint256"}]},{"type":"error","name":"NotAgent","inputs":[]},{"type":"error","name":"OwnableInvalidOwner","inputs":[{"name":"owner","type":"address","internalType":"address"}]},{"type":"error","name":"OwnableUnauthorizedAccount","inputs":[{"name":"account","type":"address","internalType":"address"}]},{"type":"error","name":"PositionCurrentlyOpen","inputs":[]},{"type":"error","name":"SafeERC20FailedOperation","inputs":[{"name":"token","type":"address","internalType":"address"}]},{"type":"error","name":"ZeroAddress","inputs":[]}],"bytecode":{"object":"0x60e060405234801562000010575f80fd5b5060405162001cf938038062001cf98339810160408190526200003391620002cb565b33836040518060400160405280601381526020017f5369676e616c73205661756c7420536861726500000000000000000000000000815250604051806040016040528060068152602001651cd59055531560d21b81525081600390816200009b9190620003ba565b506004620000aa8282620003ba565b5050505f80620000c0836200018360201b60201c565b9150915081620000d2576012620000d4565b805b60ff1660a05250506001600160a01b0390811660805281166200011057604051631e4fbdf760e01b81525f600482015260240160405180910390fd5b6200011b8162000262565b506001600160a01b03821615806200013a57506001600160a01b038116155b15620001595760405163d92e233d60e01b815260040160405180910390fd5b6001600160a01b0391821660c052600680546001600160a01b0319169190921617905550620004cc565b60408051600481526024810182526020810180516001600160e01b031663313ce56760e01b17905290515f918291829182916001600160a01b03871691620001cb9162000486565b5f60405180830381855afa9150503d805f811462000205576040519150601f19603f3d011682016040523d82523d5f602084013e6200020a565b606091505b50915091508180156200021f57506020815110155b1562000256575f818060200190518101906200023c9190620004b4565b905060ff811162000254576001969095509350505050565b505b505f9485945092505050565b600580546001600160a01b038381166001600160a01b0319831681179093556040519116919082907f8be0079c531659141344cd1fd0a4f28419497f9722a3daafe3b4186f6b6457e0905f90a35050565b6001600160a01b0381168114620002c8575f80fd5b50565b5f805f60608486031215620002de575f80fd5b8351620002eb81620002b3565b6020850151909350620002fe81620002b3565b60408501519092506200031181620002b3565b809150509250925092565b634e487b7160e01b5f52604160045260245ffd5b600181811c908216806200034557607f821691505b6020821081036200036457634e487b7160e01b5f52602260045260245ffd5b50919050565b601f821115620003b557805f5260205f20601f840160051c81016020851015620003915750805b601f840160051c820191505b81811015620003b2575f81556001016200039d565b50505b505050565b81516001600160401b03811115620003d657620003d66200031c565b620003ee81620003e7845462000330565b846200036a565b602080601f83116001811462000424575f84156200040c5750858301515b5f19600386901b1c1916600185901b1785556200047e565b5f85815260208120601f198616915b82811015620004545788860151825594840194600190910190840162000433565b50858210156200047257878501515f19600388901b60f8161c191681555b505060018460011b0185555b505050505050565b5f82515f5b81811015620004a757602081860181015185830152016200048b565b505f920191825250919050565b5f60208284031215620004c5575f80fd5b5051919050565b60805160a05160c0516117d8620005215f395f81816103ee0152818161070401526107bd01525f61062401525f81816102a6015281816104be015281816106d601528181610ff1015261115801526117d85ff3fe608060405234801561000f575f80fd5b50600436106101f2575f3560e01c806394bf804d11610114578063c31c9c07116100a9578063d905777e11610079578063d905777e14610436578063dd62ed3e14610449578063ef8b30f714610410578063f2fde38b14610481578063f5ff5c7614610494575f80fd5b8063c31c9c07146103e9578063c63d75b6146102de578063c6e6f59214610410578063ce96cb7714610423575f80fd5b8063b3d7f6b9116100e4578063b3d7f6b91461039d578063b460af94146103b0578063ba087652146103c3578063bcf685ed146103d6575f80fd5b806394bf804d1461035c578063958d4c151461036f57806395d89b4114610382578063a9059cbb1461038a575f80fd5b806338d52e0f1161018a57806370a082311161015a57806370a0823114610305578063715018a61461032d57806383fe2009146103375780638da5cb5b1461034b575f80fd5b806338d52e0f146102a4578063402d267d146102de5780634cdad506146102265780636e553f65146102f2575f80fd5b80630a28a477116101c55780630a28a4771461025c57806318160ddd1461026f57806323b872dd14610277578063313ce5671461028a575f80fd5b806301e1d114146101f657806306fdde031461021157806307a2d13a14610226578063095ea7b314610239575b5f80fd5b6101fe6104a7565b6040519081526020015b60405180910390f35b610219610534565b60405161020891906113ae565b6101fe6102343660046113fa565b6105c4565b61024c61024736600461142c565b6105d5565b6040519015158152602001610208565b6101fe61026a3660046113fa565b6105ec565b6002546101fe565b61024c610285366004611454565b6105f8565b61029261061d565b60405160ff9091168152602001610208565b7f00000000000000000000000000000000000000000000000000000000000000005b6040516001600160a01b039091168152602001610208565b6101fe6102ec36600461148d565b505f1990565b6101fe6103003660046114a6565b610648565b6101fe61031336600461148d565b6001600160a01b03165f9081526020819052604090205490565b610335610679565b005b60065461024c90600160a01b900460ff1681565b6005546001600160a01b03166102c6565b6101fe61036a3660046114a6565b61068c565b6101fe61037d3660046114d0565b6106a7565b6102196108fa565b61024c61039836600461142c565b610909565b6101fe6103ab3660046113fa565b610916565b6101fe6103be36600461154e565b610922565b6101fe6103d136600461154e565b610978565b6103356103e436600461148d565b6109c5565b6102c67f000000000000000000000000000000000000000000000000000000000000000081565b6101fe61041e3660046113fa565b610a4f565b6101fe61043136600461148d565b610a5a565b6101fe61044436600461148d565b610a7c565b6101fe610457366004611587565b6001600160a01b039182165f90815260016020908152604080832093909416825291909152205490565b61033561048f36600461148d565b610a99565b6006546102c6906001600160a01b031681565b6040516370a0823160e01b81523060048201525f907f00000000000000000000000000000000000000000000000000000000000000006001600160a01b0316906370a0823190602401602060405180830381865afa15801561050b573d5f803e3d5ffd5b505050506040513d601f19601f8201168201806040525081019061052f91906115af565b905090565b606060038054610543906115c6565b80601f016020809104026020016040519081016040528092919081815260200182805461056f906115c6565b80156105ba5780601f10610591576101008083540402835291602001916105ba565b820191905f5260205f20905b81548152906001019060200180831161059d57829003601f168201915b5050505050905090565b5f6105cf825f610ad6565b92915050565b5f336105e2818585610b0e565b5060019392505050565b5f6105cf826001610b20565b5f33610605858285610b4f565b610610858585610bb7565b60019150505b9392505050565b5f61052f817f0000000000000000000000000000000000000000000000000000000000000000611612565b5f5f19610659565b60405180910390fd5b5f61066385610a4f565b905061067133858784610c14565b949350505050565b610681610c4b565b61068a5f610c78565b565b5f5f195f61069985610916565b905061067133858388610c14565b6006545f906001600160a01b031633146106d457604051630d9ab13f60e01b815260040160405180910390fd5b7f00000000000000000000000000000000000000000000000000000000000000006107296001600160a01b038a167f000000000000000000000000000000000000000000000000000000000000000088610cc9565b6040805160e0810182526001600160a01b038b811682528a81166020830190815262ffffff8b81168486019081523060608601908152608086018d815260a087018d81525f60c0890190815298516304e45aaf60e01b8152975187166004890152945186166024880152915190921660448601529051831660648501525160848401525160a48301529151821660c48201527f0000000000000000000000000000000000000000000000000000000000000000909116906304e45aaf9060e4016020604051808303815f875af1158015610805573d5f803e3d5ffd5b505050506040513d601f19601f8201168201806040525081019061082991906115af565b9150806001600160a01b0316886001600160a01b031603610856576006805460ff60a01b19169055610883565b806001600160a01b0316896001600160a01b031603610883576006805460ff60a01b1916600160a01b1790555b83886001600160a01b03168a6001600160a01b03167f8b1141821a7a3798d178587e75d0d98987f2d440521efe059a6bc767eb8b6d1d898688426040516108e69493929190938452602084019290925260ff166040830152606082015260800190565b60405180910390a450979650505050505050565b606060048054610543906115c6565b5f336105e2818585610bb7565b5f6105cf826001610ad6565b5f8061092d83610a5a565b90508085111561095657828582604051633fa733bb60e21b81526004016106509392919061162b565b5f610960866105ec565b905061096f3386868985610d86565b95945050505050565b5f8061098383610a7c565b9050808511156109ac57828582604051632e52afbb60e21b81526004016106509392919061162b565b5f6109b6866105c4565b905061096f338686848a610d86565b6109cd610c4b565b6001600160a01b0381166109f45760405163d92e233d60e01b815260040160405180910390fd5b6006546040516001600160a01b038084169216907fb21f1bf0d206b43eb02be4f423c2788a95affbda226125eaecabe3def8ba5c42905f90a3600680546001600160a01b0319166001600160a01b0392909216919091179055565b5f6105cf825f610b20565b6001600160a01b0381165f908152602081905260408120546105cf905f610ad6565b6001600160a01b0381165f908152602081905260408120546105cf565b610aa1610c4b565b6001600160a01b038116610aca57604051631e4fbdf760e01b81525f6004820152602401610650565b610ad381610c78565b50565b5f610616610ae26104a7565b610aed90600161164c565b610af85f600a61173f565b600254610b05919061164c565b85919085610dc5565b610b1b8383836001610e07565b505050565b5f610616610b2f82600a61173f565b600254610b3c919061164c565b610b446104a7565b610b0590600161164c565b6001600160a01b038381165f908152600160209081526040808320938616835292905220545f198114610bb15781811015610ba357828183604051637dc7a0d960e11b81526004016106509392919061162b565b610bb184848484035f610e07565b50505050565b6001600160a01b038316610be057604051634b637e8f60e11b81525f6004820152602401610650565b6001600160a01b038216610c095760405163ec442f0560e01b81525f6004820152602401610650565b610b1b838383610ed9565b600654600160a01b900460ff1615610c3f576040516352d49d6560e01b815260040160405180910390fd5b610bb184848484610fec565b6005546001600160a01b0316331461068a5760405163118cdaa760e01b8152336004820152602401610650565b600580546001600160a01b038381166001600160a01b0319831681179093556040519116919082907f8be0079c531659141344cd1fd0a4f28419497f9722a3daafe3b4186f6b6457e0905f90a35050565b604080516001600160a01b038416602482015260448082018490528251808303909101815260649091019091526020810180516001600160e01b031663095ea7b360e01b179052610d1a8482611070565b610bb1576040516001600160a01b0384811660248301525f6044830152610d7c91869182169063095ea7b3906064015b604051602081830303815290604052915060e01b6020820180516001600160e01b0383818316178352505050506110b9565b610bb184826110b9565b600654600160a01b900460ff1615610db1576040516352d49d6560e01b815260040160405180910390fd5b610dbe8585858585611125565b5050505050565b5f610df2610dd2836111e5565b8015610ded57505f8480610de857610de861174d565b868809115b151590565b610dfd868686611211565b61096f919061164c565b6001600160a01b038416610e305760405163e602df0560e01b81525f6004820152602401610650565b6001600160a01b038316610e5957604051634a1406b160e11b81525f6004820152602401610650565b6001600160a01b038085165f9081526001602090815260408083209387168352929052208290558015610bb157826001600160a01b0316846001600160a01b03167f8c5be1e5ebec7d5bd14f71427d1e84f3dd0314c0f7b2291e5b200ac8c7c3b92584604051610ecb91815260200190565b60405180910390a350505050565b6001600160a01b038316610f03578060025f828254610ef8919061164c565b90915550610f609050565b6001600160a01b0383165f9081526020819052604090205481811015610f425783818360405163391434e360e21b81526004016106509392919061162b565b6001600160a01b0384165f9081526020819052604090209082900390555b6001600160a01b038216610f7c57600280548290039055610f9a565b6001600160a01b0382165f9081526020819052604090208054820190555b816001600160a01b0316836001600160a01b03167fddf252ad1be2c89b69c2b068fc378daa952ba7f163c4a11628f55a4df523b3ef83604051610fdf91815260200190565b60405180910390a3505050565b6110187f00000000000000000000000000000000000000000000000000000000000000008530856112c7565b6110228382611300565b826001600160a01b0316846001600160a01b03167fdcbc1c05240f31ff3ad067ef1ee35ce4997762752e3a095284754544f4c709d78484604051610ecb929190918252602082015260400190565b5f805f8060205f8651602088015f8a5af192503d91505f5190508280156110af575081156110a157806001146110af565b5f866001600160a01b03163b115b9695505050505050565b5f8060205f8451602086015f885af1806110d8576040513d5f823e3d81fd5b50505f513d915081156110ef5780600114156110fc565b6001600160a01b0384163b155b15610bb157604051635274afe760e01b81526001600160a01b0385166004820152602401610650565b826001600160a01b0316856001600160a01b03161461114957611149838683610b4f565b6111538382611338565b61117e7f0000000000000000000000000000000000000000000000000000000000000000858461136c565b826001600160a01b0316846001600160a01b0316866001600160a01b03167ffbde797d201c681b91056529119e0b02407c7bb96a4a2c75c01fc9667232c8db85856040516111d6929190918252602082015260400190565b60405180910390a45050505050565b5f60028260038111156111fa576111fa611761565b6112049190611775565b60ff166001149050919050565b5f838302815f1985870982811083820303915050805f036112455783828161123b5761123b61174d565b0492505050610616565b80841161125c5761125c600385150260111861139d565b5f848688095f868103871696879004966002600389028118808a02820302808a02820302808a02820302808a02820302808a02820302808a02909103029181900381900460010186841190950394909402919094039290920491909117919091029150509392505050565b6040516001600160a01b038481166024830152838116604483015260648201839052610bb19186918216906323b872dd90608401610d4a565b6001600160a01b0382166113295760405163ec442f0560e01b81525f6004820152602401610650565b6113345f8383610ed9565b5050565b6001600160a01b03821661136157604051634b637e8f60e11b81525f6004820152602401610650565b611334825f83610ed9565b6040516001600160a01b03838116602483015260448201839052610b1b91859182169063a9059cbb90606401610d4a565b634e487b715f52806020526024601cfd5b5f602080835283518060208501525f5b818110156113da578581018301518582016040015282016113be565b505f604082860101526040601f19601f8301168501019250505092915050565b5f6020828403121561140a575f80fd5b5035919050565b80356001600160a01b0381168114611427575f80fd5b919050565b5f806040838503121561143d575f80fd5b61144683611411565b946020939093013593505050565b5f805f60608486031215611466575f80fd5b61146f84611411565b925061147d60208501611411565b9150604084013590509250925092565b5f6020828403121561149d575f80fd5b61061682611411565b5f80604083850312156114b7575f80fd5b823591506114c760208401611411565b90509250929050565b5f805f805f805f60e0888a0312156114e6575f80fd5b6114ef88611411565b96506114fd60208901611411565b9550604088013562ffffff81168114611514575f80fd5b9450606088013593506080880135925060a0880135915060c088013560ff8116811461153e575f80fd5b8091505092959891949750929550565b5f805f60608486031215611560575f80fd5b8335925061157060208501611411565b915061157e60408501611411565b90509250925092565b5f8060408385031215611598575f80fd5b6115a183611411565b91506114c760208401611411565b5f602082840312156115bf575f80fd5b5051919050565b600181811c908216806115da57607f821691505b6020821081036115f857634e487b7160e01b5f52602260045260245ffd5b50919050565b634e487b7160e01b5f52601160045260245ffd5b60ff81811683821601908111156105cf576105cf6115fe565b6001600160a01b039390931683526020830191909152604082015260600190565b808201808211156105cf576105cf6115fe565b600181815b8085111561169957815f190482111561167f5761167f6115fe565b8085161561168c57918102915b93841c9390800290611664565b509250929050565b5f826116af575060016105cf565b816116bb57505f6105cf565b81600181146116d157600281146116db576116f7565b60019150506105cf565b60ff8411156116ec576116ec6115fe565b50506001821b6105cf565b5060208310610133831016604e8410600b841016171561171a575081810a6105cf565b611724838361165f565b805f1904821115611737576117376115fe565b029392505050565b5f61061660ff8416836116a1565b634e487b7160e01b5f52601260045260245ffd5b634e487b7160e01b5f52602160045260245ffd5b5f60ff83168061179357634e487b7160e01b5f52601260045260245ffd5b8060ff8416069150509291505056fea264697066735822122032036ec1a2f549373c19a4c487f8cd06788c3a0a04074d30ab1a0c6d9b659ee664736f6c63430008180033","linkReferences":{}},"methodIdentifiers":{"agent()":"f5ff5c76","allowance(address,address)":"dd62ed3e","approve(address,uint256)":"095ea7b3","asset()":"38d52e0f","balanceOf(address)":"70a08231","convertToAssets(uint256)":"07a2d13a","convertToShares(uint256)":"c6e6f592","decimals()":"313ce567","deposit(uint256,address)":"6e553f65","executeTrade(address,address,uint24,uint256,uint256,bytes32,uint8)":"958d4c15","maxDeposit(address)":"402d267d","maxMint(address)":"c63d75b6","maxRedeem(address)":"d905777e","maxWithdraw(address)":"ce96cb77","mint(uint256,address)":"94bf804d","name()":"06fdde03","owner()":"8da5cb5b","positionOpen()":"83fe2009","previewDeposit(uint256)":"ef8b30f7","previewMint(uint256)":"b3d7f6b9","previewRedeem(uint256)":"4cdad506","previewWithdraw(uint256)":"0a28a477","redeem(uint256,address,address)":"ba087652","renounceOwnership()":"715018a6","setAgent(address)":"bcf685ed","swapRouter()":"c31c9c07","symbol()":"95d89b41","totalAssets()":"01e1d114","totalSupply()":"18160ddd","transfer(address,uint256)":"a9059cbb","transferFrom(address,address,uint256)":"23b872dd","transferOwnership(address)":"f2fde38b","withdraw(uint256,address,address)":"b460af94"},"id":18}